:020000040000FA
:10000000680500206D0200008102000083020000EC
:100010008502000087020000890200000000000045
:100020000000000000000000000000008B02000043
:100030008D020000000000008F020000910200000D
:10004000930200009302000093020000930200005C
:10005000930200009302000093020000930200004C
:10006000930200009302000093020000930200003C
:10007000930200009302000093020000930200002C
:10008000930200009302000093020000930200001C
:10009000930200009302000093020000930200000C
:1000A00093020000930200009302000093020000FC
:1000B00093020000930200009302000093020000EC
:1000C00093020000930200009302000093020000DC
:1000D00093020000930200009302000093020000CC
:1000E00093020000930200009302000093020000BC
:1000F00093020000930200009302000093020000AC
:10010000930200009302000093020000930200009B
:10011000930200009302000093020000930200008B
:10012000930200009302000093020000930200007B
:10013000930200009302000093020000930200006B
:1001400000000000000000000000000000000000AF
:10015000930200009302000093020000930200004B
:10016000000000000000000000000000000000008F
:10017000000000000000000000000000000000007F
:10018000000000000000000000000000000000006F
:10019000000000000000000000000000000000005F
:1001A000000000000000000000000000000000004F
:1001B00093020000930200009302000093020000EB
:1001C00093020000930200009302000093020000DB
:1001D00093020000930200009302000093020000CB
:1001E00093020000930200009302000093020000BB
:1001F00093020000930200009302000093020000AB
:10020000930200009302000093020000000000002F
:10021000930200009302000093020000930200008A
:10022000930200009302000093020000930200007A
:10023000930200009302000093020000930200006A
:10024000930200009302000093020000930200005A
:10025000930200009302000093020000930200004A
:100260009302000093020000930200004EF68850B3
:10027000CEF20000016841F47001016000F016B890
:10028000FEE7FEE7FEE7FEE7FEE7FEE7FEE7FEE746
:10029000FEE7FEE702480349014A034B70470000AE
:1002A00068010020680500206801002000F002F8C5
:1002B00000F04CF80AA090E8000C82448344AAF1B4
:1002C0000107DA4501D100F041F8AFF2090EBAE8B2
:1002D0000F0013F0010F18BFFB1A43F0010318477A
:1002E000A4190000C4190000103A24BF78C878C1CE
:1002F000FAD8520724BF30C830C144BF04680C602C
:10030000704700000023002400250026103A28BF73
:1003100078C1FBD8520728BF30C148BF0B60704777
:10032000642900F0F783782900F0308400207047BA
:100330001FB501F0DBFA9DE8030001F095F800F02D
:1003400077FD1FBD10B500F0DCFD10BD00F03FFED5
:100350001146FFF7EDFF00F041FB01F02FF803B469
:10036000FFF7F0FF03BC01F011FA00002DE9F84F90
:10037000064615464FEAE27E02EB5E7ECEF3C70AE2
:100380004FEAE27E02EB5E7E4FEAEE0EA2EBCE0E6D
:10039000CEF1070E0EF0FF0716F80AB00125BD409A
:1003A00005EA0B0545FA07FC1D464FEAE37E03EB21
:1003B0005E7ECEF3C7084FEAE37E03EB5E7E4FEA34
:1003C000EE0EA3EBCE0ECEF1070E0EF0FF0911F8E4
:1003D00008400CFA09F5EDB20095BCF1010F04D10B
:1003E0000020009D05432C4305E0012505FA09F591
:1003F000ED43E8B2044001F80840BDE8F88F2DE96C
:10040000FE41074688460020019002900024002605
:100410000090002507E0ABB2FE48425D01A93846D6
:10042000FFF7A4FF6D1C302DF5D3002507E001A8D0
:10043000405D18F80510484001A948556D1C062D6F
:10044000F5D39DF8040000F0800084119DF80400AD
:10045000C0F3800004439DF80400C0F3C306EE48D7
:1004600000EB0410805D0007000E8DF800009DF881
:10047000040000F002049DF80500C0F300100443DE
:100480009DF80400C007060F9DF8050046EA5016C7
:100490009DF80000E14901EB0411895D08438DF8E6
:1004A00000009DF8050000F0080084109DF806008B
:1004B000C0F3801004439DF805004007060F9DF827
:1004C000060046EAD016D64800EB0410805D00070F
:1004D000000E8DF801009DF8060000F020000411C8
:1004E0009DF8060000F0010004439DF80600C0F3EB
:1004F00043069DF80100CB4901EB0411895D0843D7
:100500008DF801009DF8070000F0800084119DF82F
:100510000700C0F3800004439DF80700C0F3C30642
:10052000C14800EB0410805D0007000E8DF802004A
:100530009DF8070000F002049DF80800C0F30010C9
:1005400004439DF80700C007060F9DF8080046EA1F
:1005500050169DF80200B54901EB0411895D08436E
:100560008DF802009DF8080000F0080084109DF846
:100570000900C0F3801004439DF808004007060FEF
:100580009DF8090046EAD016A94800EB0410805DEA
:100590000007000E8DF803009DF8090000F0200010
:1005A00004119DF8090000F0010004439DF80900C2
:1005B000C0F343069DF803009E4901EB0411895DD9
:1005C00008438DF80300002507E0ABB29A48425D6E
:1005D00039466846FFF7CAFE6D1C202DF5D3BDE8ED
:1005E000FE8178B505460C46164620788DF8000049
:1005F00060788DF80100A0788DF80200E0788DF821
:10060000030031462046FFF7FAFE2078297848405B
:1006100020706078697848406070A078A978484078
:10062000A070E078E9784840E0709DF800002870FC
:100630009DF8010068709DF80200A8709DF8030005
:10064000E87078BD10B503781B01447843EA1413B1
:10065000137043781B01847843EA14135370837832
:100660001B01C47843EA14139370C4780B7864F3C5
:100670001F13D3704B7813718B785371CB789371B0
:1006800010BD08B501292BD10278C2F3C0028DF844
:1006900000204278D2098DF801208278D2098DF8A5
:1006A0000220C278D2098DF8032002788A4002F035
:1006B0000F029DF801301A43027042788A409DF87B
:1006C00002301A43427082788A409DF803301A4300
:1006D0008270C2788A409DF800301A43C2702CE0C4
:1006E00002292AD10278C2F381028DF800204278D3
:1006F00092098DF80120827892098DF80220C27843
:1007000092098DF8032002788A4002F00F029DF8CA
:1007100001301A43027042788A409DF802301A4331
:10072000427082788A409DF803301A438270C27802
:100730008A409DF800301A43C27008BDF0B5A6B0DB
:1007400007460E46002024902590002407E0A3B21F
:100750003A48025D24A93846FFF708FE641C382C8D
:10076000F5D39DF8900000098DF84C009DF891009C
:1007700000099DF8901040EA0110C0B28DF84D00BC
:100780009DF8920000099DF8911040EA0110C0B256
:100790008DF84E009DF8930000099DF8921040EAF4
:1007A0000110C0B28DF84F009DF8930000F00F00CB
:1007B0008DF808009DF894008DF809009DF89500CB
:1007C0008DF80A009DF896008DF80B00012452E088
:1007D00013A800EB8401601E13AA52F820000860E1
:1007E00002A800EB8401601E02AA52F820000860F3
:1007F000621E134B995C13AA02EB8400FFF741FFC2
:10080000621E0F4B995C02AA02EB8400FFF739FFCE
:1008100002AA17E0761900003E1A00007E1A0000B6
:10082000BE1A0000FE1A00003E1B00007E1B0000E6
:10083000BE1B0000FE1B0000A6190000C619000028
:100840002E1A000002EB840113AA02EB84006A4610
:10085000FFF7F8FE00250BE0ABB27548425D601E65
:1008600000EB400006EB40016846FFF77FFD6D1C82
:10087000302DF1D3641C112CAAD326B0F0BD2DE984
:10088000F041A2B00746884615461E460020089053
:10089000099006900790059004900AA93046FFF74A
:1008A0004DFF00242CE004EB44000AA901EB4000BA
:1008B000407904EB44010AAA02EB4101097904EBF7
:1008C00044020AAB03EB4202D27804EB44030DF17D
:1008D000280C0CEB43039B78CDE90032CDE90210E4
:1008E00004EB44000AA901EB4000437804EB440008
:1008F00011F8102021464FA000F0D8F8601CC4B2B7
:10090000102CD0DB002408E05548025D234608A9DE
:100910003846FFF72BFD601CC4B2402CF4DB9DF879
:1009200020008DF814009DF821008DF815009DF829
:1009300022008DF816009DF823008DF817009DF811
:1009400024008DF810009DF825008DF811009DF809
:1009500026008DF812009DF827008DF81300002462
:100960000AE004EB44000AA901EB400204A905A82F
:10097000FFF737FE601CC4B2102CF2DB9DF81000AC
:100980008DF818009DF811008DF819009DF81200DF
:100990008DF81A009DF813008DF81B009DF81400C7
:1009A0008DF81C009DF815008DF81D009DF81600AF
:1009B0008DF81E009DF817008DF81F00002408E038
:1009C0002848025D2346294606A8FFF7CFFC601C95
:1009D000C4B2402CF4DB22B0BDE8F0818CB022A080
:1009E00003C8CDE90A0122A103C9CDE90801082401
:1009F0000AAB06AA214608A8FFF741FF9DF81F0091
:100A00009DF81E109DF81D209DF81C30CDE9013287
:100A1000CDE903109DF81B0000909DF81A309DF859
:100A200019209DF8181014A000F040F800BFFEE750
:100A3000FE1900007375626B65795B25645D203D6E
:100A400020307825303278253032782025303278C1
:100A5000253032782025303278253032780A0A0065
:100A6000F6180000361900006A65786A65786A65CC
:100A70000123456789ABCDEF4369706865722054E7
:100A80006578743A20253032782530327820253048
:100A9000327825303278202530327825303278206F
:100AA00025303278253032780A0000000FB404492E
:100AB00010B503AA029800F08DF910BC5DF814FB84
:100AC0006000002070B5044685690068C10601D544
:100AD000302600E02026C00707D070BDD4E90121F0
:100AE00030469047206A401C20626D1EF6D570BDCE
:100AF00070B5044685690078C00707D170BDD4E998
:100B0000012120209047206A401C20626D1EF6D5EE
:100B100070BD00002DE9F0410646002410687529DB
:100B2000314616A510D0AFF30080002802DA40420B
:100B300013A507E031688A0701D512A502E049072D
:100B400004D511A5012401E0AFF3008000210A22A1
:100B500006F1240709E0B0FBF2FCB0FBF2F302FB64
:100B60001C00303078541846491C0028F3D1234625
:100B70002A463046BDE8F04100F0D3B8000000003E
:100B80002D0000002B0000002000000070B504467E
:100B90000D4621461068AFF300802188090502D573
:100BA0000F4A7A4402E00E4A7A440E32002104F1E0
:100BB000240305E000F00F060009965D5E54491C11
:100BC0000028F7D120780023000704D5702D02D02B
:100BD00009B1022311322046BDE8704000F0A1B8EF
:100BE000981000002DE9F05F894604464FF0000A96
:100BF000DFF824B1FB44C0F820A02046E168884714
:100C000000287DD0252806D0D4E901219047206A0C
:100C1000401C2062F1E700255F462046E1688847D6
:100C20002028064607DB312E05D2B81910F8200C13
:100C300008B10543F1E7A80701D525F00405C4F87C
:100C40001CA00027C4F818A02A2E09D0304600F0B6
:100C500039FE38B304EB8708303EC8F8186019E055
:100C600059F8041B204604EB87029161E16888472C
:100C7000012F064618D1E069002820DA25F020056A
:100C80001DE0D8F8180000EB800006EB400030387B
:100C9000C8F818002046E1688847064600F012FEB2
:100CA0000028EED1012F0AD02E2E08D12046E1686F
:100CB00088477F1C0646022F45F02005C4DBA0694B
:100CC000002803DA404245F00105A061E80701D0A1
:100CD00025F01005A6B1A6F14100192802D820364A
:100CE00045F400654A463146204625604D46FFF7EB
:100CF00017FB60B1012807D0ED1D25F0070000E0CB
:100D000007E000F1080978E705F1040975E73046C6
:100D10007AE7206ABDE8F09F6E10000070477047C8
:100D200070472DE9F0470D4699469246044600F17A
:100D300024080168880604D5E06921F010012160CB
:100D400000E00120A84201DD471B00E00027A16967
:100D50007A1902EB0900081AA0612078C00602D4B3
:100D60002046FFF7AFFE002608E0D4E901211AF87B
:100D700006009047206A401C761C20624E45F4DB3A
:100D80002078C0060AD52046FFF79CFE06E0D4E98D
:100D9000012130209047206A401C2062381EA7F1B4
:100DA0000107F4DC07E0D4E9012118F805009047B9
:100DB000206A401C2062281EA5F10105F3DC2046B4
:100DC000FFF796FE2078000602D50220BDE8F087E6
:100DD0000120FBE7074B70B50D467B4400F011F88E
:100DE0000446284600F020F810B14FF0FF3070BDE7
:100DF000204670BDF50A000001694A1C02610878AE
:100E0000704700B58FB0CDE901310021059105494A
:100E10007944CDE9031011466846FFF7E3FE0FB0B1
:100E200000BD0000E5FFFFFF007B00F08000704781
:100E300010B54248542100F0CEFA4148542100F048
:100E4000CAFA4048542100F0C6FA3F493B483C4AA0
:100E50003F4B08603D490A603A491960531C0365DD
:100E6000481C1065012008653B48344A39A1784484
:100E700000F008FA20B9384878440A3800F0A4FA9B
:100E800037482F4A35A1784400F0FCF920B934489E
:100E900078440A3800F098FA32482A4A2FA1784458
:100EA00000F0F0F920B92F4878440A3800F08CFAA5
:100EB00040232248DC000021224600F0BFF920B187
:100EC00025487844543800F07FFA1D4822464023D4
:100ED000002100F0B3F920B121487844543800F0E3
:100EE00073FA184822461023002100F0A7F90028C1
:100EF00006D01C487844BDE81040563800F064BA6B
:100F000010BD104870B5006D20F001040B4800F0D2
:100F10002FFA0B4800F02CFA0A4800F029FA09E0F1
:100F2000206D20F00105204600F022FA204600F056
:100F300073F82C46002CF3D170BD00000C0000208B
:100F400060000020B4000020000000200400002009
:100F50000800002072000000050E0000770000006D
:100F6000F10D0000DD0D00000EB5CDE9000100F02F
:100F7000EDFB029069460120ABBE0EBD08B5694687
:100F800000900220ABBE08BD1FB58DE80700694682
:100F90000520ABBE04B010BD1FB58DE80F0069463B
:100FA0000620ABBEF6E708B5694600900920ABBE47
:100FB00008BD1CB5CDE9000169460A20ABBE1CBDC9
:100FC000704708B5694600900C20ABBE08BD754659
:100FD00000F028FAAE4605006946534620F00700A7
:100FE000854618B020B5FFF755F9BDE820404FF011
:100FF00000064FF000074FF000084FF0000B21F003
:101000000701AC46ACE8C009ACE8C009ACE8C009CF
:10101000ACE8C0098D46704770B50446051F00F066
:1010200007FA0068002C14BF446870BD002C18BF7C
:10103000AC423CBF20466468F8D301680A18AA4253
:1010400018BF456003D12A6805461144016028682D
:101050004119A1421CBF6C6070BD61686960216864
:101060000844286070BD2DE9F04705460C46C86865
:1010700020F4201040F48000C860800602D50846A5
:1010800000F023FBE06841F282014FF0FF3901409C
:10109000022903D0204600F0C1FAB5E000F4204157
:1010A000B1F5004F0FD1C00306D56168E06A8842F0
:1010B00000D80846606006E02069E0626060606910
:1010C000FFF77FFFA061A0680022EEB200280DDAD2
:1010D000E1688B050AD4C043A06041F490302260DF
:1010E000E0606068411C61600670A5E0E0689046C1
:1010F000226040F40050E060206968BB6069FFF73F
:1011000052FF012704F12405A0B1A08910F4407F0B
:1011100008D0E06900F0D7F9206118B1E06840F428
:10112000006016E0E7612561E06820F4407040F45B
:1011300080600EE0E06900F0C6F900282061F1D07F
:10114000E06840F4006010F4407FE06002D140F4B9
:101150008070E06020696060E06825696FF0010AD6
:10116000C1051FD56168E06A884200D80846411B66
:1011700004D02246284600F05BFAF0BBE06801028A
:1011800003D5E562C4E9015854E0691CE16261607D
:10119000E16940F48030491EC4E9021030462E70E7
:1011A000BDE8F087010202D500F480320AE06068F1
:1011B000411C61600670E0680A2E40F48030E060F7
:1011C00006D00022E16A6068814203D90B4602E042
:1011D0000122F7E70346A7895B1B7F0503D4E76974
:1011E0009F4200DDE2B1814200D80146E5620F1A5C
:1011F000C4E90158002B09DD00E005E0224619464C
:10120000284600F015FA08B14846C9E747B1A06979
:10121000E5626560C01BA061E06840F01000E0601E
:10122000E068000208D56168A069E562491B0844CE
:101230006560A0615046B3E73046B1E770B5C46859
:10124000A50713D0650211D4B2F5807F09D0B2F59D
:10125000007F06D0B2F5806F08D1012300F1240190
:1012600006E05D1E6FF07F46B54201D3012070BDE0
:101270000161C361416024F470611143C1600020C9
:1012800070BD00002DE9F0410C4607461646104699
:1012900000F06EF82078611C61280AD0722802D014
:1012A00077283CD102E00125002405E00225042432
:1012B00002E0082448F2020511F8010B2B2806D0A1
:1012C000622809D011F8010C74280AD00BE045F00F
:1012D000030544F00204EFE745F0040544F001047F
:1012E000EAE744F0100438462146FFF73DFE411C72
:1012F00015D00021316171604FF40071F560F1612A
:101300007061200704D530460222002100F00AF95E
:10131000306D40F0010030653046BDE8F0810020BE
:10132000FBE72DE9F0410D460646104C206DC10744
:1013300004D0410804D020F00104F7E722460EE073
:10134000542000F0C0F807000ED0206D47F00101D6
:10135000084354212065384600F03DF83A462946B6
:101360003046BDE8F0418DE70020D6E70C000020B4
:101370002DE9F04704464FF000094FF0FF37C568EC
:10138000D4E90486A80707D0204600F07BF9304650
:10139000FFF7F4FD002802DA3846BDE8F08728059B
:1013A00002D54046FFF738FE4C21204600F013F8E6
:1013B000206D20F0010020654846EEE70446AFF3BB
:1013C00000802046FEF7CBFF10B500F0A5F9BDE880
:1013D000104000F09BB94FF0000200B51346944650
:1013E0009646203922BFA0E80C50A0E80C50B1F17D
:1013F0002001BFF4F7AF090728BFA0E80C5048BF91
:101400000CC05DF804EB890028BF40F8042B08BF2E
:10141000704748BF20F8022B11F0804F18BF00F82A
:10142000012B7047004870470801002070470000FA
:1014300000487047100100207047704770477047A0
:1014400038B504460A4600206946AFF300800028FC
:1014500008BF38BD02460099204600F0A4F90120DB
:1014600038BD012000F0F3B9F8B5AFF300800546B0
:1014700000200C46102000BF0646A819A0420DD936
:10148000324669460020AFF30080070008BF00F035
:10149000DEF90098A04218BF0546C419FFF7C8FF3F
:1014A00005600746F01D20F007004619284600F0A9
:1014B00073F9B44208BFF8BDA21B31463868BDE8D5
:1014C000F84000F070B970B50646FFF7B1FF056847
:1014D00006F10B0020F00704B4429CBF002070BD51
:1014E0002B466A68BAB11068A04210D304F1080113
:1014F00088423CBF5068586007D35168101941605A
:101500001168091B016058601460101D70BD1346FE
:101510005268002AE7D121462846FFF791FF0028AC
:10152000DED170BD2DE9F041044616460D464769EF
:10153000007B80072ED03846FFF735FD50BB3EB309
:10154000012E02D0022E25D104E0204600F045F9FC
:1015500005441DE03846FFF734FDE168002841F0FE
:101560001001E16005DA204600F058F80120BDE8DE
:10157000F081C9030BD56268E16A914200D8114637
:10158000A26911442269891A814200DD0846054496
:10159000002D01DA0220EAE7E16A6068E268814230
:1015A00006D29103E06203D522F4003141F010022B
:1015B000A6690027AE4213DCE16A814201D90B46DD
:1015C00000E0034603EB060C2369ACEB030CAC45CF
:1015D00006DD814201D98C4600E084469C4505D158
:1015E000A760276042F02000A5620DE0AD1BE66910
:1015F000AE1B8142A66000D90846C01A281A206096
:101600005819606022F0200003490840E060002083
:1016100084F84870ABE70000BFCFD7FFC16821F462
:10162000001141F08001C1600021816001607047BC
:101630002DE9F047814614460E464FF0FF383248F8
:10164000D5685769054209D03846A169FFF7B1FC52
:10165000002811DB2C48C0430540E5602B4632468C
:1016600049463846FFF790FCA16920F00042B21AC3
:1016700011440028A16103D02046FFF7CFFF404668
:10168000BDE8F08770B504460569C06A61688842A4
:1016900000D80846E16821F42011E160C90312D5A1
:1016A000A84208D02246411B2846FFF7C1FF10B1CF
:1016B0004FF0FF3070BD0020E562C4E90150E068E2
:1016C00020F48030E060002070BD10B50446C06892
:1016D00020F02000E060A16AA06988420DD0204679
:1016E000FFF7D0FFE06820F4405040F01000E060C9
:1016F000A06AA0612069E062606044F24001E06895
:101700008843E06010BD000010000200002801D0F6
:1017100000F03CB87047000010B5014602A000F090
:101720007DF8012010BD00005349475254524544F2
:101730003A2052656469726563743A2063616E276A
:1017400074206F70656E3A200000000010B5431CD5
:1017500002E010F8011B71B18107FAD14FF001329C
:1017600002C88C1A8C4314EAC211F9D0C01A0A06B6
:1017700003D0C01E10BDC01A10BD0A0401D0801EC7
:1017800010BD0902FCD0401E10BD00000149182008
:10179000ABBEFEE72600020000210160C0E9011097
:1017A000704710207047034640688C46002818BFD9
:1017B00088423CBF03464068F8D318681844884202
:1017C00007D00CF1030020F00700001D411A521A47
:1017D0000146081D0A60FFF71FBC10B50146C2682C
:1017E000900703D0900607D5886A0AE000F03EF81B
:1017F00001210160881E10BD8B69486818440B697F
:10180000C01A91F848301BB191F84910401A10BD28
:101810001103FCD50028FADD401E10BD70B5054649
:101820000C460A2000E06D1C00F018F835B128784D
:101830000028F8D102E0641C00F010F814B1207800
:101840000028F8D1BDE870400A2000F007B810B5B4
:1018500000F010F8BDE81040FFF758BF08B5694622
:101860008DF800000320ABBE08BD000000487047A3
:101870000801002010B5012805D0002103A0FFF7C2
:10188000CDFF012010BD09A1F8E7000053494752E0
:10189000544D454D3A204F7574206F662068656140
:1018A00070206D656D6F7279000000003A20486508
:1018B0006170206D656D6F727920636F72727570E3
:1018C0007465640030380A2801D201207047002076
:1018D00070478A68002A01DCFFF7C5BB521E8A6088
:1018E0004A68C0B2531C4B60107070474FF0407094
:1018F000E1EE100A704739312921191109013B33F2
:101900002B231B130B033D352D251D150D053F37CF
:101910002F271F170F0738302820181008003A32D9
:101920002A221A120A023C342C241C140C043E36BF
:101930002E261E160E0627072F0F37173F1F2606C7
:101940002E0E36163E1E25052D0D35153D1D240483
:101950002C0C34143C1C23032B0B33133B1B220293
:101960002A0A32123A1A21012909311139192000A3
:101970002808301038181F0001020304030405066C
:1019800007080708090A0B0C0B0C0D0E0F100F109F
:10199000111213141314151617181718191A1B1CE3
:1019A0001B1C1D1E1F000F0613141C0B1B10000E0A
:1019B000161904111E090107170D1F1A0208120C2F
:1019C0001D05150A03183830282018100800393171
:1019D0002921191109013A322A221A120A023B332B
:1019E0002B233E362E261E160E063D352D251D15A3
:1019F0000D053C342C241C140C041B130B030D107C
:101A00000A170004021B0E05140916120B0319070E
:101A10000F061A130C0128331E242E361D27322CD4
:101A2000202F2B30263721342D2931231C1F010173
:101A300002020202020201020202020202010E047A
:101A40000D01020F0B08030A060C05090007000F21
:101A500007040E020D010A060C0B09050308040118
:101A60000E080D06020B0F0C0907030A05000F0CE8
:101A7000080204090107050B030E0A00060D0F01F9
:101A8000080E060B03040907020D0C00050A030DDE
:101A900004070F02080E0C00010A06090B05000ED0
:101AA000070B0A040D0105080C060903020F0D08B7
:101AB0000A01030F04020B06070C00050E090A00B9
:101AC000090E06030F05010D0C070B0402080D0794
:101AD00000090304060A0208050E0C0B0F010D068F
:101AE0000409080F03000B01020C050A0E07010A86
:101AF0000D0006090807040F0E030B05020C070D65
:101B00000E030006090A010208050B0C040F0D085C
:101B10000B05060F00030407020C010A0E090A0652
:101B200009000C0B070D0F01030E05020804030F3B
:101B300000060A010D080904050B0C07020E020C31
:101B40000401070A0B060805030F0D000E090E0B12
:101B5000020C04070D0105000F0A03090806040220
:101B6000010B0A0D07080F090C050603000E0B08F0
:101B70000C07010E020D060F00090A0405030C01F3
:101B80000A0F09020608000D03040E07050B0A0FD1
:101B90000402070C090506010D0E000B0308090ECF
:101BA0000F0502080C030700040A010D0B060403CD
:101BB000020C09050F0A0B0E01070600080D040BA5
:101BC000020E0F00080D030C0907050A06010D009F
:101BD0000B070409010A0E03050C020F0806010495
:101BE0000B0D0C03070E0A0F060800050902060B71
:101BF0000D0801040A070905000F0E02030C0D026F
:101C00000804060F0B010A09030E05000C07010F5B
:101C10000D080A0307040C05060B000E0902070B4A
:101C20000401090C0E0200060A0D0F03050802014B
:101C30000E07040A080D0F0C09000305060B3031CE
:101C400032333435363738394142434445464030E3
:101C50005800303132333435363738396162636495
:101C600065664030780004000008000000000000B5
:101C7000000200010000103A7474003A7474003AD3
:101C800074740000A41C0000000000200C00000080
:101C9000E8020000B01C00000C0000205C05000001
:101CA000040300000000000000000000000000002D
:040000050000026D88
:00000001FF
