:020000040000FA
:10000000600400206D0200008102000083020000F5
:100010008502000087020000890200000000000045
:100020000000000000000000000000008B02000043
:100030008D020000000000008F020000910200000D
:10004000930200009302000093020000930200005C
:10005000930200009302000093020000930200004C
:10006000930200009302000093020000930200003C
:10007000930200009302000093020000930200002C
:10008000930200009302000093020000930200001C
:10009000930200009302000093020000930200000C
:1000A00093020000930200009302000093020000FC
:1000B00093020000930200009302000093020000EC
:1000C00093020000930200009302000093020000DC
:1000D00093020000930200009302000093020000CC
:1000E00093020000930200009302000093020000BC
:1000F00093020000930200009302000093020000AC
:10010000930200009302000093020000930200009B
:10011000930200009302000093020000930200008B
:10012000930200009302000093020000930200007B
:10013000930200009302000093020000930200006B
:1001400000000000000000000000000000000000AF
:10015000930200009302000093020000930200004B
:10016000000000000000000000000000000000008F
:10017000000000000000000000000000000000007F
:10018000000000000000000000000000000000006F
:10019000000000000000000000000000000000005F
:1001A000000000000000000000000000000000004F
:1001B00093020000930200009302000093020000EB
:1001C00093020000930200009302000093020000DB
:1001D00093020000930200009302000093020000CB
:1001E00093020000930200009302000093020000BB
:1001F00093020000930200009302000093020000AB
:10020000930200009302000093020000000000002F
:10021000930200009302000093020000930200008A
:10022000930200009302000093020000930200007A
:10023000930200009302000093020000930200006A
:10024000930200009302000093020000930200005A
:10025000930200009302000093020000930200004A
:100260009302000093020000930200004EF68850B3
:10027000CEF20000016841F47001016000F016B890
:10028000FEE7FEE7FEE7FEE7FEE7FEE7FEE7FEE746
:10029000FEE7FEE702480349014A034B70470000AE
:1002A00060000020600400206000002000F002F8E0
:1002B00000F02EF80AA090E8000C82448344AAF1D2
:1002C0000107DA4501D100F023F8AFF2090EBAE8D0
:1002D0000F0013F0010F18BFFB1A43F0010318477A
:1002E000940A0000A40A0000002300240025002630
:1002F000103A28BF78C1FBD8520728BF30C148BF89
:100300000B6070471FB500F08CFB1FBD10B510BD12
:1003100000F051FB1146FFF7F5FF00F013FB00F072
:100320006FFB03B4FFF7F2FF03BC00F073FB0000A8
:100330002DE9F84F064615464FEAE27E02EB5E7E57
:10034000CEF3C70A4FEAE27E02EB5E7E4FEAEE0E84
:10035000A2EBCE0ECEF1070E0EF0FF0716F80AB094
:100360000125BD4005EA0B0545FA07FC1D464FEA8D
:10037000E37E03EB5E7ECEF3C7084FEAE37E03EB3A
:100380005E7E4FEAEE0EA3EBCE0ECEF1070E0EF020
:10039000FF0911F808400CFA09F5EDB20095BCF11F
:1003A000010F04D10020009D05432C4305E00125E9
:1003B00005FA09F5ED43E8B2044001F80840BDE84C
:1003C000F88F00BF70472DE9FE41074688460020A0
:1003D00001900290002400260090002507E0ABB2B7
:1003E000FD48425D01A93846FFF7A2FF6D1C302D84
:1003F000F5D3002507E001A8405D18F80510484036
:1004000001A948556D1C062DF5D39DF8040000F098
:10041000800084119DF80400C0F3800004439DF81F
:100420000400C0F3C306ED4800EB0410805D000734
:10043000000E8DF800009DF8040000F002049DF805
:100440000500C0F3001004439DF80400C007060F28
:100450009DF8050046EA50169DF80000E04901EBC2
:100460000411895D08438DF800009DF8050000F037
:10047000080084109DF80600C0F3801004439DF826
:1004800005004007060F9DF8060046EAD016D5483D
:1004900000EB0410805D0007000E8DF801009DF850
:1004A000060000F0200004119DF8060000F0010095
:1004B00004439DF80600C0F343069DF80100CA49B5
:1004C00001EB0411895D08438DF801009DF80700D8
:1004D00000F0800084119DF80700C0F38000044301
:1004E0009DF80700C0F3C306C04800EB0410805D10
:1004F0000007000E8DF802009DF8070000F00204CE
:100500009DF80800C0F3001004439DF80700C007E1
:10051000060F9DF8080046EA50169DF80200B449FF
:1005200001EB0411895D08438DF802009DF8080075
:1005300000F0080084109DF80900C0F38010044307
:100540009DF808004007060F9DF8090046EAD016FE
:10055000A84800EB0410805D0007000E8DF8030032
:100560009DF8090000F0200004119DF8090000F03A
:10057000010004439DF80900C0F343069DF8030001
:100580009D4901EB0411895D08438DF803000025A6
:1005900007E0ABB29948425D39466846FFF7C8FEAE
:1005A0006D1C202DF5D3BDE8FE8178B505460C46BF
:1005B000164620788DF8000060788DF80100A0784C
:1005C0008DF80200E0788DF8030031462046FFF7F1
:1005D000FAFE21462846FFF7F4FE9DF80000287039
:1005E0009DF8010068709DF80200A8709DF8030056
:1005F000E87078BD10B503781B01447843EA141302
:10060000137043781B01847843EA14135370837882
:100610001B01C47843EA14139370C4780B7864F315
:100620001F13D3704B7813718B785371CB78937100
:1006300010BD08B501292BD10278C2F3C0028DF894
:1006400000204278D2098DF801208278D2098DF8F5
:100650000220C278D2098DF8032002788A4002F085
:100660000F029DF801301A43027042788A409DF8CB
:1006700002301A43427082788A409DF803301A4350
:100680008270C2788A409DF800301A43C2702CE014
:1006900002292AD10278C2F381028DF80020427823
:1006A00092098DF80120827892098DF80220C27893
:1006B00092098DF8032002788A4002F00F029DF81B
:1006C00001301A43027042788A409DF802301A4382
:1006D000427082788A409DF803301A438270C27853
:1006E0008A409DF800301A43C27008BDF0B5A6B02C
:1006F00007460E46002024902590002407E0A3B270
:100700003F48025D24A93846FFF712FE641C382CCE
:10071000F5D39DF8900000098DF84C009DF89100EC
:1007200000099DF8901040EA0110C0B28DF84D000C
:100730009DF8920000099DF8911040EA0110C0B2A6
:100740008DF84E009DF8930000099DF8921040EA44
:100750000110C0B28DF84F009DF8930000F00F001B
:100760008DF808009DF894008DF809009DF895001B
:100770008DF80A009DF896008DF80B00012452E0D8
:1007800013A800EB8401601E13AA52F82000086031
:1007900002A800EB8401601E02AA52F82000086043
:1007A000621E184B995C13AA02EB8400FFF741FF0D
:1007B000621E144B995C02AA02EB8400FFF739FF1A
:1007C00002AA02EB840113AA02EB84006A46FFF737
:1007D00011FF002524E00000AC0A0000740B0000AB
:1007E000B40B0000F40B0000340C0000740C00008B
:1007F000B40C0000F40C0000340D0000DC0A000012
:10080000FC0A0000640B0000ABB26348425D601E4E
:1008100000EB400006EB40016846FFF789FD6D1CC8
:10082000302DF1D3641C112CAAD326B0F0BD2DE9D4
:10083000F0419EB00746884615461E4600200490AB
:100840000590029003900190009006A93046FFF7B2
:100850004DFF002408E05148025D234604A93846B4
:10086000FFF766FD601CC4B2402CF4DB9DF810005D
:100870008DF804009DF811008DF805009DF8120018
:100880008DF806009DF813008DF807009DF8140000
:100890008DF800009DF815008DF801009DF81600F8
:1008A0008DF802009DF817008DF8030000240AE07F
:1008B00004EB440006A901EB4002694601A8FFF7DA
:1008C00074FE601CC4B2102CF2DB9DF800008DF8A1
:1008D00008009DF801008DF809009DF802008DF8D0
:1008E0000A009DF803008DF80B009DF804008DF8B8
:1008F0000C009DF805008DF80D009DF806008DF8A0
:100900000E009DF807008DF80F00002408E0244831
:10091000025D2346294602A8FFF70AFD601CC4B207
:10092000402CF4DB1EB0BDE8F0810A0E02710A0C07
:1009300042710A0A8271C171002202704270827093
:10094000C27070472DE9F04186B00746884615A170
:1009500003C9CDE904010020029003900826002578
:10096000002400BF11E01420B4FBF0F100FB1140A3
:1009700020B9294602A8FFF7D8FF6D1C04AB6A46D0
:10098000314602A8FFF753FF641C08488442EAD3AB
:10099000002006B0BDE8F081340B00002C0A0000F6
:1009A0006C0A00006A65786A65786A65400D030024
:1009B000704770477047754600F028F8AE4605004E
:1009C0006946534620F00700854618B020B5FFF76A
:1009D00061FCBDE820404FF000064FF000074FF0EB
:1009E00000084FF0000B21F00701AC46ACE8C0094D
:1009F000ACE8C009ACE8C009ACE8C0098D46704756
:100A00000446AFF300802046FFF78BFC0048704798
:100A10000000002001491820ABBEFEE726000200BE
:100A200070474FF04070E1EE100A704739312921CC
:100A3000191109013B332B231B130B033D352D25C6
:100A40001D150D053F372F271F170F07383028209A
:100A5000181008003A322A221A120A023C342C24B6
:100A60001C140C043E362E261E160E0627072F0FCA
:100A700037173F1F26062E0E36163E1E25052D0D56
:100A800035153D1D24042C0C34143C1C23032B0B66
:100A900033133B1B22022A0A32123A1A2101290976
:100AA0003111391920002808301038181F000102B0
:100AB00003040304050607080708090A0B0C0B0CBE
:100AC0000D0E0F100F101112131413141516171802
:100AD0001718191A1B1C1B1C1D1E1F000F061314B0
:100AE0001C0B1B10000E161904111E090107170D0F
:100AF0001F1A0208120C1D05150A03183830282089
:100B00001810080039312921191109013A322A2215
:100B10001A120A023B332B233E362E261E160E06D1
:100B20003D352D251D150D053C342C241C140C04BD
:100B30001B130B030D100A170004021B0E051409EA
:100B400016120B0319070F061A130C0128331E2463
:100B50002E361D27322C202F2B30263721342D29DD
:100B600031231C1F010102020202020201020202E1
:100B7000020202010E040D01020F0B08030A060C0B
:100B800005090007000F07040E020D010A060C0BF1
:100B90000905030804010E080D06020B0F0C0907D6
:100BA000030A05000F0C080204090107050B030ED8
:100BB0000A00060D0F01080E060B03040907020DBB
:100BC0000C00050A030D04070F02080E0C00010AB1
:100BD00006090B05000E070B0A040D0105080C069B
:100BE0000903020F0D080A01030F04020B06070C8C
:100BF00000050E090A00090E06030F05010D0C077A
:100C00000B0402080D0700090304060A0208050E7A
:100C10000C0B0F010D060409080F03000B01020C59
:100C2000050A0E07010A0D0006090807040F0E0346
:100C30000B05020C070D0E030006090A0102080548
:100C40000B0C040F0D080B05060F00030407020C24
:100C5000010A0E090A0609000C0B070D0F01030E0D
:100C600005020804030F00060A010D080904050B1C
:100C70000C07020E020C0401070A0B060805030FFD
:100C80000D000E090E0B020C04070D0105000F0AE2
:100C9000030908060402010B0A0D07080F090C05D9
:100CA0000603000E0B080C07010E020D060F0009CB
:100CB0000A0405030C010A0F09020608000D0304CB
:100CC0000E07050B0A0F0402070C090506010D0E9D
:100CD000000B0308090E0F0502080C030700040AA5
:100CE000010D0B060403020C09050F0A0B0E010788
:100CF0000600080D040B020E0F00080D030C090777
:100D0000050A06010D000B070409010A0E03050C74
:100D1000020F080601040B0D0C03070E0A0F06084C
:100D200000050902060B0D0801040A070905000F5A
:100D30000E02030C0D020804060F0B010A09030E34
:100D400005000C07010F0D080A0307040C05060B2C
:100D5000000E0902070B0401090C0E0200060A0D21
:100D60000F03050802010E07040A080D0F0C090005
:100D70000305060B840D0000000000206004000045
:040D8000E802000085
:040000050000026D88
:00000001FF
